:020000040800F2
:1000000000000420F12F00084D2F00084F2F00089A
:10001000512F0008532F0008552F00080000000042
:10002000000000000000000000000000572F000842
:10003000592F0008000000005B2F00085D2F00080A
:1000400041300008413000084130000841300008CC
:1000500041300008413000084130000841300008BC
:1000600041300008413000084130000841300008AC
:10007000413000084130000841300008413000089C
:10008000413000084130000841300008413000088C
:10009000413000084130000841300008413000087C
:1000A000413000084130000841300008413000086C
:1000B000413000084130000841300008413000085C
:1000C000413000084130000841300008413000084C
:1000D000413000084130000841300008413000083C
:1000E000413000084130000841300008413000082C
:1000F000413000084130000841300008413000081C
:10010000413000084130000841300008413000080B
:1001100041300008413000084130000841300008FB
:1001200041300008413000084130000841300008EB
:100130004130000800000000000000000000000046
:100140000000000000000000000000004130000836
:1001500041300008413000084130000841300008BB
:1001600041300008413000084130000841300008AB
:10017000413000084130000800000000000000008D
:10018000413000084130000841300008413000088B
:1001900041300008413000080000000041300008F4
:1001A00000000000000000000000000041300008D6
:1001B000413000084130000800000000000000004D
:1001C000000000000000000000000000000000002F
:1001D00000000000000000000000000041300008A6
:1001E00010B5054C237833B9044B13B10448AFF371
:1001F00000800123237010BD70010020000000006A
:10020000E438000808B5034B1BB103490348AFF3BA
:10021000008008BD0000000074010020E4380008E0
:10022000034613F8012B002AFBD1181A0138704736
:1002300001F0FF01102A2BDB10F0070F08D010F897
:10024000013B013A8B422DD010F0070F42B3F6D19B
:10025000F0B441EA012141EA014122F007047FF0B4
:1002600000070023F0E80256083C85EA010586EA0B
:10027000010685FA47F5A3FA87F586FA47F6A5FA47
:1002800087F68EB9EED1F0BC01F0FF0102F0070253
:1002900032B110F8013B013A83EA010313B1F8D1FE
:1002A0000020704701387047002D06BF35460338DF
:1002B000073815F0010F07D1013015F4807F02BF18
:1002C000013015F4C03F0130F0BC0138704700BF69
:1002D00053B94AB9002908BF00281CBF4FF0FF31AD
:1002E0004FF0FF3000F07AB9ADF1080C6DE904CEA3
:1002F00000F006F8DDF804E0DDE9022304B0704701
:100300002DE9F0478C460D460446089E002B51D13E
:100310008A4217466DD9B2FA82FEBEF1000F0BD0A9
:10032000CEF1200C01FA0EF520FA0CFC02FA0EF7C1
:100330004CEA050C00FA0EF44FEA174A250CBCFBF8
:10034000FAF81FFA87F90AFB18CC45EA0C4508FBB6
:1003500009F3AB420AD9ED1908F1FF3280F023818D
:10036000AB4240F22081A8F102083D44ED1AA4B24C
:10037000B5FBFAF00AFB105544EA054400FB09F905
:10038000A14509D9E41900F1FF3380F00A81A145A4
:1003900040F2078102383C44A4EB090440EA0840DB
:1003A0000021002E61D024FA0EF400233460736023
:1003B000BDE8F0878B4207D9002E54D0002186E893
:1003C00021000846BDE8F087B3FA83F1002940F028
:1003D0008E80AB4202D3824200F2FA80841A65EB2F
:1003E00003050120AC46002E3FD086E81010BDE882
:1003F000F08712B90127B7FBF2F7B7FA87FEBEF113
:10040000000F34D1EB1B3A0C1FFA87FC0121B3FB20
:10041000F2F8250C02FB183345EA03450CFB08F300
:10042000AB4207D9ED1908F1FF3002D2AB4200F21E
:10043000D1808046ED1AA3B2B5FBF2F002FB105555
:1004400043EA05440CFB00FCA44507D9E41900F17C
:10045000FF3302D2A44500F2B8801846A4EB0C0486
:1004600040EA08409DE731463046BDE8F087CEF1CE
:10047000200405FA0EF307FA0EF720FA04F83A0CF6
:1004800025FA04F448EA0308B4FBF2F14FEA1845F0
:1004900002FB11441FFA87FC45EA044501FB0CF3FB
:1004A000AB4200FA0EF409D9ED1901F1FF3080F0EA
:1004B0008A80AB4240F2878002393D44EB1A1FFA32
:1004C00088F5B3FBF2F002FB103345EA034500FB6D
:1004D0000CF3AB4207D9ED1900F1FF386FD2AB42F4
:1004E0006DD902383D44EB1A40EA01418FE7C1F172
:1004F000200722FA07F88B4005FA01F448EA0303C3
:1005000020FA07FE4FEA134CFD404EEA040EB5FBFD
:10051000FCF94FEA1E440CFB19551FFA83F844EA14
:10052000054509FB08F4AC4202FA01F200FA01FAAF
:1005300008D9ED1809F1FF3043D2AC4241D9A9F1F5
:1005400002091D442D1B1FFA8EFEB5FBFCF00CFBAF
:1005500010554EEA054400FB08F8A04507D9E418F9
:1005600000F1FF3529D2A04527D902381C4440EAC2
:100570000940A4EB0804A0FB02894C45C6464D4641
:1005800015D312D056B1BAEB0E0364EB050404FA8E
:1005900007F7CB401F43CC40376074600021BDE8B3
:1005A000F0871846F8E69046E0E6C245EAD2B8EB96
:1005B000020E69EB03050138E4E72846D7E7404619
:1005C00091E78146BEE7014678E702383C4445E7BB
:1005D000084608E7A8F102083D442BE7704700BF32
:1005E00010B504460E4B18784FF47A73B3FBF0F352
:1005F0000C4A1068B0FBF3F000F028FA68B90F2C31
:1006000001D9012010BD002221464FF0FF3000F03B
:10061000EDF9054B1C60002010BD012010BD00BF8E
:1006200000000020080100200400002008B503207D
:1006300000F0CAF90020FFF7D3FF02F075FB00209D
:1006400008BD0000034A1168034B1B780B4413607C
:10065000704700BFA801002000000020014B18686F
:10066000704700BFA801002038B50446FFF7F6FF29
:100670000546B4F1FF3F02D0044B1B781C44FFF742
:10068000EDFF401B8442FAD838BD00BF00000020B7
:100690004A4B5A6822F440325A605A6841680A4309
:1006A0005A600268536823F4807353600268536889
:1006B000016943EA012353600268536823F04073E1
:1006C00053600268536881680B4353600268936803
:1006D00023F40063936002689368C1680B439360DE
:1006E000826A374B9A424BD00268936823F070635A
:1006F000936002689368816A0B4393600268936811
:1007000023F04053936002689368C16A0B4393607F
:100710000268936823F0020393600268936881691A
:1007200043EA4103936090F82030002B33D10268F4
:10073000536823F4006353600268D36A23F47003A0
:10074000D3620168CB6AC269013A43EA0253CB62C1
:100750000268936823F4007393600268936890F8CA
:10076000301043EA412393600268936823F4806366
:10077000936002689368416943EA812393607047FC
:100780000268936823F0706393600268936823F0B3
:1007900040539360BCE70268536843F400635360BE
:1007A0000268536823F46043536001684B68426AEF
:1007B000013A43EA42334B60BEE700BF00230140E9
:1007C0000100000F28B310B50446036C43B1236C3D
:1007D00013F0100F0BD00120002384F83C3010BD23
:1007E00002F0BAFA0023636484F83C30EFE7226C2D
:1007F000094B134043F0020323642046FFF748FFF0
:1008000000206064236C23F0030343F0010323649E
:10081000E2E70120704700BFFDEEFFFF30B482B079
:100820000023019390F83C30012B00F0C08001239D
:1008300080F83C300B68092B22D90568EA689BB226
:1008400003EB43031E3B072404FA03F322EA0303EA
:10085000EB600B68574A93420BD00568EA688C68D6
:100860009BB203EB43031E3B04FA03F31343EB6019
:100870001BE00268D3688C6843EA0463D36014E029
:1008800005682A699BB203EB4303072404FA03F3C8
:1008900022EA03032B6105682A698C680B8803EB45
:1008A000430304FA03F313432B614B68062B24D84C
:1008B00005686A6B03EB8303053B1F2404FA03F30B
:1008C00022EA03036B6305686A6B4B6803EB8303DF
:1008D000053B0C8804FA03F313436B630268364B41
:1008E0009A423AD00268344B9A423FD0002380F8B3
:1008F0003C30184602B030BC70470C2B16D8056847
:100900002A6B03EB8303233B1F2404FA03F322EA3D
:1009100003032B6305682A6B4B6803EB8303233BBC
:100920000C8804FA03F313432B63D7E70568EA6ADC
:1009300003EB8303413B1F2404FA03F322EA03037E
:10094000EB620568EA6A4B6803EB8303413B0C8862
:1009500004FA03F31343EB62C0E70B68122BC1D117
:10096000164A536843F480035360BBE70B68114A8F
:10097000112B18BF9342B9D1104A536843F40003B6
:1009800053600A680B4B9A42B0D10D4B1B680D4A5D
:10099000A2FB03239B0C03EB83035A00019202E0AA
:1009A000019B013B0193019B002BF9D19EE70220A3
:1009B000A0E700BF1200001000200140002301400A
:1009C0000801002083DE1B430649CB6823F4E06363
:1009D0001B041B0C000200F4E0600343024A1A43AC
:1009E000CA60704700ED00E00000FA0530B4144B17
:1009F000DB68C3F30223C3F10704042C28BF0424DB
:100A00001D1D062D13D9033B012505FA04F4013CF5
:100A10002140994005FA03F3013B13401943002894
:100A200007DB0901C9B2074B195430BC70470023DA
:100A3000EAE700F00F000901C9B2034B1954F4E7CB
:100A400000ED00E000E400E014ED00E00138B0F15A
:100A5000807F0AD2064B5860F021064A82F82310A4
:100A60000020986007221A6070470120704700BF7D
:100A700010E000E000ED00E0F0B583B0002437E0C6
:100A8000072600E0002606FA0EF632430233664ED1
:100A900046F82320654B1A68EB4302EA03064F68C9
:100AA00017F4803F01D045EA0206604A166052689A
:100AB00003EA02064F6817F4003F01D045EA020638
:100AC0005A4A5660926803EA02064F6817F4801F7C
:100AD00001D045EA0206554A9660D26813404E6836
:100AE00016F4001F01D045EA0203504AD3600134D6
:100AF0000F2C00F297800123A3400A6803EA020545
:100B0000AB42F4D14A68122A18BF022A12D14FEA26
:100B1000D40E0EF1080E50F82E2004F00706B60091
:100B20000F27B74022EA07020F6907FA06F6324399
:100B300040F82E2006684FEA440E032202FA0EF215
:100B4000D24316404F6807F0030707FA0EF73E43FB
:100B500006604E68771E112E18BF012F01D9122E84
:100B60000FD186681640CF6807FA0EF73E438660BD
:100B7000466826EA03034E68C6F30016A6403343D0
:100B80004360C3681A408B6803FA0EF31A43C260CD
:100B90004B6813F0805FAAD0254B5A6C42F4804218
:100BA0005A645B6C03F480430193019BA3089E1C71
:100BB0001D4A52F8262004F003064FEA860E0F263F
:100BC00006FA0EF622EA06021A4FB8423FF45AAF6E
:100BD000194EB0421AD006F58066B04218D006F51C
:100BE0008066B04216D006F58066B04214D006F595
:100BF0008066B04212D006F58066B04210D006F58D
:100C00008066B0423FF43CAF08263CE701263AE755
:100C1000022638E7032636E7042634E7052632E7BE
:100C2000062630E703B0F0BD00380140003C01402B
:100C300000380240000002400004024012B90904DA
:100C4000816170478161704703689A6912F0020FF1
:100C500001D000229A6203689A6912F0010F03D151
:100C60009A6942F001029A61704770B4039D066868
:100C700070686C0D04F4806444F07F7444F458345C
:100C800044F47F7444F0030420EA0400C1F3090132
:100C900041EA0241194329430843706070BC704720
:100CA00070B504460D46164603689B6913F0100F95
:100CB0001CD023689A6912F0200F19D1B5F1FF3FBB
:100CC000F7D0FFF7CBFC801B854201D3002DF0D17C
:100CD000636C43F020036364202384F841300023D5
:100CE00084F8423084F84030012070BD002070BD8F
:100CF0001022DA6123682025DD612046FFF7A4FF7A
:100D00002268536823F0FF7323F48B3323F4FF73BB
:100D100023F001035360636C43F00403636484F8BD
:100D20004150002384F8423084F84030012070BDE7
:100D300070B504460D46164623689B6913F0020FF2
:100D40001DD1324629462046FFF7AAFFC8B9B5F1A2
:100D5000FF3FF1D0FFF782FC801B854201D3002DBD
:100D6000EAD1636C43F020036364202384F84130AC
:100D7000002384F8423084F84030012070BD002008
:100D800070BD012070BDF8B505460F4616461C46DD
:100D90002B689B6937EA03030CBF01230023B3428E
:100DA00018D1B4F1FF3FF3D0FFF758FC069BC01AEF
:100DB000844201D3002CEBD16B6C43F020036B64B5
:100DC000202385F84130002385F8423085F84030F3
:100DD0000120F8BD0020F8BD70B505460C4616464A
:100DE0002B689B6913F0200F1AD132462146284602
:100DF000FFF756FFB0B9FFF731FC801B844201D3E7
:100E0000002CEDD16B6C43F020036B64202385F83C
:100E10004130002385F8423085F84030012070BD14
:100E2000002070BD012070BD70B504460D46164609
:100E300023689B6913F0040F3ED1324629462046B1
:100E4000FFF72EFF0146002838D123689A6912F077
:100E5000200F13D1FFF702FC801B854201D3002D28
:100E6000E6D1636C43F020036364202384F84130AF
:100E7000002384F840300121084670BD9A6912F0C1
:100E8000040F02D0228D002AF6D12022DA612168D7
:100E90004B6823F0FF7323F48B3323F4FF7323F0A9
:100EA00001034B600023636484F8412084F84230DE
:100EB00084F840300121DFE70021DDE70121DBE795
:100EC000002857D010B5044690F84130002B41D08F
:100ED000242384F841302268136823F0010313604F
:100EE0002268636823F0706313612268936823F4B7
:100EF00000439360E368012B31D02268A36843F478
:100F000004439360E368022B2FD0226851681A4B88
:100F10000B4353602268D36823F40043D3602268F4
:100F2000236961690B43A16943EA0123D360226805
:100F3000E369216A0B4313602268136843F00103DD
:100F4000136000206064202384F84130206384F81B
:100F5000420010BD80F8403001F042FFB8E722683F
:100F6000A36843F400439360CCE723684FF4006226
:100F70005A60CAE701207047008000022DE9F04363
:100F800083B090F84150EDB2202D04D002231846D2
:100F900003B0BDE8F08390F84040012C01D102235A
:100FA000F5E7984617460D4604464FF0010980F8CC
:100FB0004090FFF753FB0646009019234A464FF432
:100FC00000412046FFF7DFFE002840F08980212302
:100FD00084F84130102384F8423000236364676250
:100FE000A4F82A806363638D9BB2FF2B0AD9FF228A
:100FF00022853F4B00934FF0807329462046FFF730
:1010000034FE18E0628D92B22285394B00934FF086
:101010000073D2B229462046FFF727FE0BE0628D0F
:1010200092B22285002300934FF00073D2B229467A
:101030002046FFF71AFE638D9BB2002B33D0324659
:101040000A992046FFF774FE00284BD12368626A94
:1010500012789A62636A01336362638D9BB2013BCB
:101060009BB26385238D013B9BB22385628D92B237
:10107000002AE0D0002BDED100960A9B00228021BE
:101080002046FFF780FE78BB638D9BB2FF2BC6D94D
:10109000FF222285002300934FF0807329462046CB
:1010A000FFF7E3FDC7E732460A992046FFF794FEB3
:1010B0000346D8B922682021D1612068426822F015
:1010C000FF7222F48B3222F4FF7222F0010242609E
:1010D00084F84110002284F8422084F8402056E72A
:1010E000012354E7012352E7012350E701234EE790
:1010F000002000802DE9F04383B090F84150EDB21C
:10110000202D04D00223184603B0BDE8F08390F8E8
:101110004040012C01D10223F5E7984617460D46C1
:1011200004464FF0010980F84090FFF797FA064611
:10113000009019234A464FF400412046FFF723FE52
:10114000002840F08880222384F84130102384F85E
:101150004230002363646762A4F82A806363638D6E
:101160009BB2FF2B0AD9FF2222853F4B00934FF001
:10117000807329462046FFF778FD18E0628D92B211
:101180002285394B00934FF00073D2B22946204696
:10119000FFF76BFD0BE0628D92B222850023009376
:1011A0004FF00073D2B229462046FFF75EFD638DF3
:1011B0009BB2002B32D032460A992046FFF734FE0C
:1011C00000284AD1636A2268526A1A70636A01333E
:1011D0006362228D013A92B22285638D9BB2013BFC
:1011E0009BB26385638D9BB2002BE0D0002ADED1D9
:1011F00000960A9B80212046FFF7C5FD78BB638DD2
:101200009BB2FF2BC7D9FF222285002300934FF00A
:10121000807329462046FFF728FDC8E732460A9921
:101220002046FFF7D9FD0346D8B922682021D161B5
:101230002068426822F0FF7222F48B3222F4FF729F
:1012400022F00102426084F84110002284F842201A
:1012500084F8402057E7012355E7012353E7012392
:1012600051E701234FE700BF0024008090F8413090
:10127000DBB2202B01D00220704790F84030012BC8
:1012800020D0012380F84030242380F841300268C8
:10129000136823F0010313600268136823F480537A
:1012A000136002681368194311600268136843F001
:1012B00001031360202380F84130002380F8403080
:1012C000184670470220704790F84130DBB2202B5F
:1012D00001D00220704790F84030012B1ED001232E
:1012E00080F84030242380F841300268136823F0EE
:1012F000010313600268136823F4706343EA012159
:1013000011600268136843F001031360202380F822
:101310004130002380F84030184670470220704763
:10132000F0B58BB0002800F08A80044690F8BD33F9
:10133000F3B1032384F8BD33206801F0EFF92546AB
:1013400055F8107B6E460FCD0FC60FCD0FC695E832
:10135000030086E80300231D0ECB384601F0A0F9F8
:1013600058B1022384F8BD33012528460BB0F0BDE7
:1013700080F8BC3301F0A2FDDBE70021206801F01A
:10138000D3F9002315E0D900C81A820022440120B5
:1013900082F83D0082F83C30A2F84230002082F80A
:1013A0003F0050649064CA1A9100214408650133DB
:1013B000DBB26568AB42E6D3002315E0D800C11A62
:1013C0008A002244002182F8FD1182F8FC3182F863
:1013D000FF11C2F80412C2F80812C21A9000204489
:1013E000C0F810120133DBB29D42E7D8254655F80C
:1013F000107B6E460FCD0FC60FCD0FC695E80300CC
:1014000086E80300231D0ECB384601F0D3F90546CC
:1014100060B9002384F83830012384F8BD33636A4F
:10142000012B08D0206801F09FFA9EE7022384F880
:10143000BD33012599E7204600F004F8F2E70125C5
:1014400093E70000024603680121C0F8FC13002066
:1014500082F8F4039A6942F000629A61596D024A77
:101460000A435A65704700BF03000010024A136820
:1014700043F48073136070470070004010B582B071
:101480001B4B1A6C42F080521A641B6C03F08053A1
:101490000193019B174A136843F480331360FFF7ED
:1014A000DDF80446134B5B6813F4803F08D1FFF767
:1014B000D5F8001BB0F57A7FF4D9032002B010BD37
:1014C0000C4A136843F400331360FFF7C7F804466F
:1014D000084B5B6813F4003F07D1FFF7BFF8001B10
:1014E000B0F57A7FF4D90320E8E70020E6E700BFF3
:1014F0000038024000700040002800F0DB8170B529
:1015000082B00446036813F0010F3AD0A24B9B68E7
:1015100003F00C03042B2BD09F4B9B6803F00C03B0
:10152000082B20D06368B3F5803F50D0002B54D1F6
:10153000994B1A6822F480321A601A6822F48022C9
:101540001A606368002B5FD0FFF788F80546924B5E
:101550001B6813F4003F14D1FFF780F8401B642888
:10156000F5D90320ABE18C4B5B6813F4800FD9D025
:10157000894B1B6813F4003F03D06368002B00F015
:101580009B81236813F0020F64D0834B9B6813F098
:101590000C0F4DD0804B9B6803F00C03082B42D0FE
:1015A000E368002B79D07C4A136843F00103136091
:1015B000FFF754F80546784B1B6813F0020F63D110
:1015C000FFF74CF8401B0228F5D9032077E1724A57
:1015D000136843F480331360B3E7B3F5A02F09D049
:1015E0006D4B1A6822F480321A601A6822F4802245
:1015F0001A60A6E7684B1A6842F480221A601A68DB
:1016000042F480321A609CE7FFF728F80546624BE7
:101610001B6813F4003FB4D0FFF720F8401B642888
:10162000F5D903204BE15C4B5B6813F4800FB7D115
:10163000594B1B6813F0020F04D0E368012B01D053
:1016400001203CE1544A136823F0F803216943EA7E
:10165000C1031360236813F0080F46D0636983B396
:101660004D4A536F43F001035367FEF7F7FF0546FA
:10167000494B5B6F13F0020F37D1FEF7EFFF401BB2
:101680000228F5D903201AE1434A136823F0F8032E
:10169000216943EAC1031360DCE73F4A136823F082
:1016A00001031360FEF7DAFF05463B4B1B6813F09E
:1016B000020FCFD0FEF7D2FF401B0228F5D903203E
:1016C000FDE0354A536F23F001035367FEF7C6FF71
:1016D0000546314B5B6F13F0020F06D0FEF7BEFFDD
:1016E000401B0228F5D90320E9E0236813F0040F1A
:1016F0007ED0294B1B6C13F0805F31D1264B1A6CC6
:1017000042F080521A641B6C03F080530193019BDA
:101710000125224B1B6813F4807F23D0A368012B83
:1017200034D0002B3CD11C4B1A6F22F001021A67F7
:101730001A6F22F004021A67A368002B46D0FEF746
:101740008DFF0646144B1B6F13F0020F4FD1FEF7AF
:1017500085FF801B41F288339842F3D90320AEE025
:101760000025D6E70D4A136843F480731360FEF733
:1017700075FF0646094B1B6813F4807FCED1FEF738
:101780006DFF801B6428F5D9032098E0024A136F8F
:1017900043F001031367CFE70038024000700040B8
:1017A000052B09D0484B1A6F22F001021A671A6FF5
:1017B00022F004021A67BFE7434B1A6F42F004029B
:1017C0001A671A6F42F001021A67B5E7FEF746FF83
:1017D00006463D4B1B6F13F0020F08D0FEF73EFF8D
:1017E000801B41F288339842F3D9032067E0F5B9B2
:1017F000A369002B62D0344A926802F00C02082AD6
:101800005FD0022B19D0304A136823F08073136025
:10181000FEF724FF04462C4B1B6813F0007F47D0D3
:10182000FEF71CFF001B0228F5D9032047E0264ADB
:10183000136C23F080531364DAE7234A136823F010
:1018400080731360FEF70AFF05461F4B1B6813F0F9
:10185000007F06D0FEF702FF401B0228F5D90320C7
:101860002DE0E369226A1343626A43EA8213A26AA3
:101870005208013A43EA0243E26A43EA026343F050
:101880000053114A5360136843F080731360FEF7EE
:10189000E5FE04460C4B1B6813F0007F06D1FEF7F3
:1018A000DDFE001B0228F5D9032008E0002006E039
:1018B000002004E001207047012000E0002002B079
:1018C00070BD0120FBE700BF00380240F8B5314B86
:1018D0009B6803F00C03042B59D0082B01D02E4831
:1018E000F8BD2C4B5A6802F03F025B6813F4800F7E
:1018F0002AD0284B5B68C3F388131E4600275C017F
:101900000025E41A65EB0705A90141EA9461A001ED
:10191000001B61EB0501CB0043EA5073C400A01922
:1019200043EB07014B0243EAD053440220461946D9
:101930000023FEF7CDFC174B5B68C3F30143013373
:101940005B00B0FBF3F0F8BD124B5B68C3F3881388
:101950001E4600275C010025E41A65EB0705A90176
:1019600041EA9461A001001B61EB0501CB0043EA51
:101970005073C400A01943EB07018B0243EA905354
:101980008402204619460023FEF7A2FCD3E7034851
:10199000F8BD00BF003802400024F40000127A00B5
:1019A000002800F0A28070B50446524B1B6803F07B
:1019B0000F038B420CD24F4A136823F00F030B43E3
:1019C0001360136803F00F03994201D0012070BD2A
:1019D000236813F0020F17D013F0040F04D0464A07
:1019E000936843F4E0539360236813F0080F04D026
:1019F000414A936843F4604393603F4A936823F0FD
:101A0000F003A068034393600D46236813F0010FB1
:101A100031D06368012B20D0022B25D0364A1268C2
:101A200012F0020F63D034498A6822F00302134394
:101A30008B60FEF713FE06462F4B9B6803F00C03EA
:101A40006268B3EB820F16D0FEF708FE801B41F2EE
:101A500088339842F0D9032070BD274A126812F4E7
:101A6000003FE0D1012070BD234A126812F0007FD0
:101A7000D9D1012070BD1F4B1B6803F00F039D429D
:101A80000CD21C4A136823F00F032B431360136816
:101A900003F00F039D4201D0012070BD236813F0B5
:101AA000040F06D0144A936823F4E053E1680B4313
:101AB0009360236813F0080F07D00F4A936823F44C
:101AC0006043216943EAC1039360FFF7FFFE0A4BBD
:101AD0009B68C3F30313094AD35CD840084B1860D2
:101AE0000020FEF77DFD002070BD01207047012021
:101AF00070BD00BF003C02400038024008390008B9
:101B000008010020014B1868704700BF0801002041
:101B100008B5FFF7F7FF044B9B68C3F38223034A22
:101B2000D35CD84008BD00BF003802401839000817
:101B300008B5FFF7E7FF044B9B68C3F34233034A42
:101B4000D35CD84008BD00BF0038024018390008F7
:101B5000F0B583B00446036813F0010F0CD0A44B1A
:101B60009A6822F400029A609A68C16A0A439A60ED
:101B7000C36AC3B1002700E00027236813F4002FD5
:101B800015D09B4AD2F88C3023F44013616B0B4381
:101B9000C2F88C30636BB3F5801F06D0002B00F0C9
:101BA0000581002504E00127E7E70127F6E7002586
:101BB000236813F4801F0FD08D4AD2F88C3023F4A1
:101BC0004003A16B0B43C2F88C30A36BB3F5800FBD
:101BD00000F0EE8003B90125236813F0200F40F0D8
:101BE000E980236813F0100F0CD0814BD3F88C20C0
:101BF00022F08072C3F88C20D3F88C20216B0A432A
:101C0000C3F88C20236813F4804F08D0784AD2F8A8
:101C1000903023F44033E16D0B43C2F890302368D9
:101C200013F4004F08D0724AD2F8903023F44023C6
:101C3000216E0B43C2F89030236813F4803F08D024
:101C40006B4AD2F8903023F44013616E0B43C2F814
:101C50009030236813F0400F08D0654AD2F89030D6
:101C600023F00303E16B0B43C2F89030236813F0B9
:101C7000800F08D05E4AD2F8903023F00C03216C1C
:101C80000B43C2F89030236813F4807F08D0584A81
:101C9000D2F8903023F03003616C0B43C2F89030DF
:101CA000236813F4007F08D0514AD2F8903023F013
:101CB000C003A16C0B43C2F89030236813F4806F0B
:101CC00008D04B4AD2F8903023F44073E16C0B43B8
:101CD000C2F89030236813F4006F08D0444AD2F859
:101CE000903023F44063216D0B43C2F89030236899
:101CF00013F4805F08D03E4AD2F8903023F440536A
:101D0000616D0B43C2F89030236813F4005F08D074
:101D1000374AD2F8903023F44043A16D0B43C2F808
:101D20009030236813F4001F0DD0314AD2F8903060
:101D300023F00063616F0B43C2F89030636FB3F11F
:101D4000006F00F0A180236813F4802F08D0284A88
:101D5000D2F8903023F04073E16E0B43C2F890301C
:101D6000236813F4000F08D0214AD2F8903023F0F2
:101D70008053A16F0B43C2F89030236813F0806F3B
:101D800008D01B4AD2F8903023F00053E16F0B4388
:101D9000C2F89030002F79D12368B3F1007F75D05D
:101DA000002D40F0E480002003B0F0BD0125FFE6E7
:101DB00001270FE70E4B1A6C42F080521A641B6C1D
:101DC00003F080530193019B0A4A136843F4807324
:101DD0001360FEF743FC0646064B1B6813F4807F36
:101DE0000AD1FEF73BFC801B6428F5D90320DBE712
:101DF00000380240007000408E4B1B6F13F440739C
:101E000015D0A26A02F44072934210D0894B1A6F27
:101E100022F44072196F41F480311967196F21F46F
:101E2000803119671A671B6F13F0010F12D1A36A73
:101E300003F44072B2F5407F1DD07E4A936823F4CC
:101E4000F81393607B490B6FA26AC2F30B02134332
:101E50000B67C6E6FEF702FC0646764B1B6F13F0D7
:101E6000020FE4D1FEF7FAFB801B41F2883398425F
:101E7000F3D9032098E76F48826822F4F8126E497C
:101E800019400A438260DDE701255CE7694A13686F
:101E900023F080631360FEF7E1FB0646654B1B6889
:101EA00013F0006F06D0FEF7D9FB801B6428F5D92C
:101EB000032079E7236813F0010F0ED0E36A63B9BA
:101EC0005C4AD2F88430616803F0706343EA81139E
:101ED000A16843EA0173C2F88430236813F4002F29
:101EE00003D0626BB2F5801F2AD013F4801F03D099
:101EF000A36BB3F5800F23D0236813F0007F0AD0C3
:101F00006268E3681B0643EA8213A26843EA02732D
:101F1000484AC2F88430474A136843F0806313602C
:101F2000FEF79CFB0646434B1B6813F0006F7FF4E3
:101F300037AFFEF793FB801B6428F4D9032033E707
:101F40003C4AD2F884106068E3681B0643EA8013B9
:101F500001F0E0410B43C2F88430D2F88C3023F01A
:101F60001F03E16901390B43C2F88C30C4E7314AE1
:101F7000136823F080531360FEF770FB05462D4B6A
:101F80001B6813F0005F06D0FEF768FB401B642857
:101F9000F5D9032008E7236813F4002F01D0626B02
:101FA00022B113F4801F18D0A36BB3B9214AD2F821
:101FB0008830216903F4403343EA8113616943EABD
:101FC0000163C2F88830D2F88C3023F4F853216AC8
:101FD000013943EA0123C2F88C30236813F4001F4F
:101FE00003D0636FB3F1006F13D0124A136843F04C
:101FF00080531360FEF732FB04460E4B1B6813F050
:10200000005F14D1FEF72AFB001B6428F5D90320DA
:10201000CAE60849D1F888202069A3691B0443EA6D
:10202000801302F070621343C1F88830DDE70020AE
:10203000BAE600BF00380240FFFCFF0F10B50446AF
:1020400083680269134342691343C26913430168F9
:1020500008689C4A024013430B602268536823F4CB
:102060004053E1680B435360A369226A134321681C
:102070008A6822F4306213438B602368924A934249
:102080002BD0924A93423BD0914A934250D0914AEE
:10209000934263D0904A934275D0904A934200F0A5
:1020A0008A808F4A934200F09E808E4A934200F0CD
:1020B000B2801023E269B2F5004F00F0D480082B03
:1020C00000F26F81DFE813F03201470151016D0129
:1020D0005A016D016D016D016401834BD3F890309D
:1020E00003F00303032B09D8DFE803F00204AD0675
:1020F0000123DFE70423DDE70823DBE71023D9E72B
:10210000794BD3F8903003F00C030C2B0ED8DFE89A
:1021100003F0070D0D0D090D0D0D9C0D0D0D0B00A0
:102120000023C7E70423C5E70823C3E71023C1E75B
:102130006D4BD3F8903003F03003102B0AD006D942
:10214000202B00F08480302B06D10823B2E71BB986
:102150000023AFE70423ADE71023ABE7624BD3F8CE
:10216000903003F0C003402B09D005D9802B70D0EC
:10217000C02B06D108239DE71BB900239AE704234F
:1021800098E7102396E7584BD3F8903003F4407348
:10219000B3F5807F0BD007D9B3F5007F5BD0B3F5E3
:1021A000407F06D1082385E71BB9002382E704237B
:1021B00080E710237EE74C4BD3F8903003F4406364
:1021C000B3F5806F0BD007D9B3F5006F45D0B3F5E9
:1021D000406F06D108236DE71BB901236AE704238A
:1021E00068E7102366E7404BD3F8903003F4405380
:1021F000B3F5805F0BD007D9B3F5005F2FD0B3F5EF
:10220000405F06D1082355E71BB9002352E704239A
:1022100050E710234EE7344BD3F8903003F440439B
:10222000B3F5804F0BD007D9B3F5004F19D0B3F5F4
:10223000404F06D108233DE71BB900233AE70423AA
:1022400038E7102336E7022334E7022332E702237C
:1022500030E702232EE702232CE702232AE702239A
:1022600028E7022326E7082B5DD8DFE803F0051FE7
:102270003F5C485C5C5C5300FFF74AFC62685308B3
:1022800003EB4003B3FBF2F39BB20020A3F1100178
:102290004FF6EF72914200F287809AB222F00F025D
:1022A000C3F3420313432268D36050E0FFF740FCBE
:1022B0006268530803EB4003B3FBF2F39BB20020C8
:1022C000E4E700BFF369FFEF001001400044004065
:1022D00000480040004C0040005000400014014005
:1022E00000780040007C0040003802406268304BBB
:1022F00003EB5203B3FBF2F39BB20020C6E7FFF7F8
:10230000E5FA6268530803EB4003B3FBF2F39BB2B8
:102310000020BBE76268530803F58033B3FBF2F398
:102320009BB20020B2E701200023AFE7FFF7F0FBEC
:10233000626800EB5203B3FBF2F39BB20020A3F1FF
:1023400010014FF6EF72914230D82268D36000231B
:102350002366636610BDFFF7EBFB626800EB520378
:10236000B3FBF2F39BB20020E9E76268114B03EB89
:102370005203B3FBF2F39BB20020E0E7FFF7A6FAAB
:10238000626800EB5203B3FBF2F39BB20020D6E786
:102390006268530803F50043B3FBF2F39BB20020DD
:1023A000CDE701200023CAE70120D0E70120CEE7D6
:1023B0000048E8010024F400436A13F0010F06D03E
:1023C0000268536823F40033816A0B435360436A05
:1023D00013F0020F06D00268536823F48033C16AF9
:1023E0000B435360436A13F0040F06D0026853682E
:1023F00023F48023016B0B435360436A13F0080FEF
:1024000006D00268536823F40043416B0B435360CA
:10241000436A13F0100F06D00268936823F48053C8
:10242000816B0B439360436A13F0200F06D0026860
:10243000936823F40053C16B0B439360436A13F01A
:10244000400F0AD00268536823F48013016C0B43D9
:102450005360036CB3F5801F0BD0436A13F0800FF9
:1024600006D00268536823F40023816C0B43536049
:1024700070470268536823F4C003416C0B435360F8
:10248000EBE72DE9F04105460F4616469846069CB7
:102490002B68DB6937EA03030CBF01230023B34237
:1024A0001DD1B4F1FF3FF3D0FEF7D8F8A0EB080040
:1024B000844201D3002CEBD12A68136823F4D07333
:1024C00013602A68936823F00103936020236B67ED
:1024D000AB67002385F870300320BDE8F081002051
:1024E000BDE8F0812DE9F04182B01E46436F202BFC
:1024F00004D00223184602B0BDE8F08104460D4620
:102500009046002A18BF002953D090F87030012B54
:1025100001D10223EEE7012380F870300023C36766
:1025200021234367FEF79AF80746A4F85080A4F8E1
:102530005280A368B3F5805F02D04FF0000814E02A
:10254000236913B14FF000080FE0A84600250CE006
:10255000226838F8023BC3F308039362B4F85230A0
:102560009BB2013B9BB2A4F85230B4F852309BB2FC
:1025700073B100963B46002280212046FFF781FF81
:10258000C8B9002DE4D0236815F8012B9A62E5E75D
:1025900000963B46002240212046FFF772FF03468B
:1025A00008B10323A6E720226267002284F8702086
:1025B000A0E701239EE703239CE710B582B0044601
:1025C0000023C367FEF74AF82268126812F0080F6A
:1025D00007D120236367A367002084F8700002B04E
:1025E00010BD6FF07E430093034600224FF40011AC
:1025F0002046FFF746FF0028EBD00320EFE768B343
:1026000010B50446436F03B324236367226813683D
:1026100023F0010313602046FFF710FD01281FD0AF
:10262000636ABBB92268536823F4904353602268FD
:10263000936823F02A0393602268136843F0010330
:1026400013602046FFF7B9FF10BD80F8703000F02E
:10265000FFFBD9E72046FFF7AFFEE3E70120704715
:1026600010BD0000002301330C4A934211D80269C7
:10267000002AF8DA036943F0010303610023013300
:10268000064A934207D8026912F0010FF7D10020E1
:102690007047032070470320704700BF400D0300C0
:1026A00084B010B5044603A880E80E00089B012BF7
:1026B00011D0E36843F04003E3602046FFF7D2FF08
:1026C000A36B43F48033A363069B012B1BD0BDE8AF
:1026D000104004B07047A36B23F48033A363E26817
:1026E0000D4B1340E360E36823F44013E3600F9B5A
:1026F000012B03D02046FFF7B5FFE5E7E36843F47D
:102700008013E360F6E7A36843F00603A360A368C1
:1027100043F02003A360DAE7BFFFBDFF836823F027
:10272000010383600020704708B5C36823F0C043ED
:10273000C360012909D069B9C36843F08043C3600D
:102740003220FDF791FF002008BDC36843F000531D
:10275000C360F5E7012008BD890141F02001016156
:1027600000230133054A934205D8026912F0200F75
:10277000F7D1002070470320704700BF400D0300D1
:102780001023036100230133054A934205D80269EF
:1027900012F0100FF7D1002070470320704700BFE0
:1027A000400D0300D0F800381943C0F8001800208D
:1027B0007047000084B02DE9F041044607A880E886
:1027C0000E002546002306E003F1400204EB8202DE
:1027D0000021516001330E2BF6D9119B83BBA36BF3
:1027E00023F40013A363236843F0400323602368AA
:1027F00043F0800323600023C4F8003E04F5006624
:10280000D4F80038C4F800380C9B012B1DD0032BE2
:1028100027D003212046FFF7C5FF10212046FFF7F0
:102820009BFF804608B14FF001082046FFF7A8FF44
:1028300008B14FF00108002333617361F36127E0B1
:10284000A36B43F40013A363D5E7099B23B90021CD
:102850002046FFF7A7FFE0E701212046FFF7A2FF90
:10286000DBE7099B23B900212046FFF79BFFD4E754
:1028700001212046FFF796FFCFE7C3B94FF0006074
:10288000C2F8000900220A614FF67F328A600133E4
:1028900007998B4210D205EB431202F51061D2F872
:1028A00000090028E9DB0020C2F80009EAE74FF040
:1028B0009040C2F80009E5E700230AE0BBB14FF001
:1028C0009047C2F8007B002202614FF67F3282609F
:1028D00001338B4210D205EB431202F53060D2F87F
:1028E000007B002FEADB0027C2F8007BEBE74FF00C
:1028F0000067C2F8007BE6E7336923F48073336135
:102900000A9B012B1BD00022A2616FF08042626102
:102910001BB9A36943F01003A361A2690E4B1343D3
:10292000A3610D9B1BB1A36943F00803A361119B35
:10293000012B0BD04046BDE8F04104B07047074A78
:102940003263316B064A0A433263DCE7A269054B06
:102950001343A361EEE700BF00383C800001800014
:10296000030001000400004008B5D0F8043843F02B
:102970000203C0F804380320FDF776FE002008BDEE
:10298000F0B58DB000240794089409940A940B9430
:10299000354B1A6B42F004021A631A6B02F0040200
:1029A0000192019A1A6B42F080021A631A6B02F0CC
:1029B00080020292029A1A6B42F002021A631A6BA8
:1029C00002F002020392039A1A6B42F008021A63A1
:1029D0001A6B02F008020492049A1A6B42F0400249
:1029E0001A631A6B02F040020592059A1A6B42F0C4
:1029F00001021A631B6B03F001030693069B1B4F36
:102A000022464FF481413846FEF718F9184D224608
:102A100040212846FEF712F94FF400530793154B57
:102A20000893099407A91448FEF726F84FF4814348
:102A300007930126089609940A9407A93846FEF7D9
:102A40001BF840230793089609940A9407A928467F
:102A5000FEF712F8802307930894099407A92846E3
:102A6000FEF70AF80DB0F0BD003802400004024045
:102A700000180240000011100008024008B5094883
:102A8000094B03604FF4E133436000238360C3606C
:102A900003610C2242618361C36103624362FFF7F9
:102AA000AEFD08BDAC0100200048004008B50A4852
:102AB0004FF0A0430360062343600023036102221A
:102AC00082610122C261036243628262C262036365
:102AD000FEF726FC08BD00BF78020020F8B5144CB4
:102AE000144B23604FF4803363600025A5600127F9
:102AF0002761A56184F82050E5620F4BA362E56071
:102B0000E76184F8305065612046FDF75BFE0B4EAF
:102B1000092333607760B56031462046FDF77EFEBD
:102B20000C23336031462046FDF778FEF8BD00BF28
:102B30007C060020002001400100000F8C010020D5
:102B400038B50D4C0D4B23600D4B63600025A5601F
:102B50000123E36025616561A561E5612562204689
:102B6000FEF7AEF929462046FEF780FB29462046AF
:102B7000FEF7AAFB38BD00BF2C0200200054004025
:102B80000D03006010B584B0032803D8DFE800F01F
:102B90000E05080B40F283130AE045F2831307E0A9
:102BA00046F2831304E047F2831301E044F28313F7
:102BB00043F4004301228DF80C201A0A8DF80D20F1
:102BC0008DF80E30FDF74AFD04464FF47A730093FA
:102BD000032303AA48210B48FEF7D0F9FDF73EFD79
:102BE000001B0928FAD9002303934FF47A7300934A
:102BF000022303AA48210348FEF77CFA9DF80D0042
:102C000004B010BD2C02002010B5FFF7BBFF084C2C
:102C100002460849204600F047FA2046FDF700FB2F
:102C20000A2382B221460448FFF75CFC10BD00BFB6
:102C300008000020FC380008AC01002030B5B5B019
:102C40003022002128A800F027FA0024239424949D
:102C50002594269427948022214603A800F01CFA8C
:102C6000FEF704FC214B1A6C42F080521A641B6C74
:102C700003F080530193019B1D4B1A6842F44042BC
:102C80001A601B6803F440430293029B01232893BC
:102C90004FF4A023299302252E954FF480032F9300
:102CA000192330934FF4D87331933295092333931A
:102CB00028A8FEF721FCFEF7E1FB0F2323932495C0
:102CC00025944FF4A05326934FF480532793072164
:102CD00023A8FEF765FE074B039314941A942094DF
:102CE00003A8FEF735FF35B030BD00BF0038024005
:102CF000007000400041200010B5FDF797FCFFF781
:102D00009DFFFFF73DFEFFF7B9FEFFF7CFFEFFF790
:102D1000E5FEFFF715FF0020441CE4B200F00300BD
:102D2000FFF772FF2046F7E782B00A4B1A6C42F0B9
:102D300080521A641A6C02F080520092009A5A6C07
:102D400042F480425A645B6C03F480430193019B1C
:102D500002B070470038024010B588B000230393DA
:102D60000493059306930793026803F1804303F5E8
:102D700090339A4201D008B010BD03F58C335A6CE1
:102D800042F480725A645A6C02F480720092009A83
:102D90001A6B42F004021A631A6B02F004020192E9
:102DA000019A1A6B42F002021A631B6B03F00203D2
:102DB0000293029B042303930324049403A906486B
:102DC000FDF75AFE0223039304940023059303A9FD
:102DD0000248FDF751FECEE7000802400004024021
:102DE00010B588B0002303930493059306930793CB
:102DF0000268144B9A4201D008B010BD124C236BEC
:102E000043F002032363236B03F002030193019B4E
:102E10004FF41073039312230493012305930323A8
:102E200006930423079303A90848FDF725FE236CA6
:102E300043F400132364236C03F400130293029BF6
:102E4000DAE700BF005400400038024000040240AE
:102E500000B589B000230393049305930693079369
:102E60000268144B9A4202D009B05DF804FB03F5E6
:102E7000F8331A6C42F480221A641A6C02F480222D
:102E80000192019A1A6B42F008021A631B6B03F05D
:102E900008030293029B4FF44073039302230493AD
:102EA000032306930723079303A90348FDF7E4FDD3
:102EB000DAE700BF00480040000C024030B589B09E
:102EC0000023039304930593069307930368B3F1D8
:102ED000A04F01D009B030BD1A4C236B43F0010361
:102EE0002363236B03F001030093009B4FF4E8532B
:102EF000039302230493032306930A230793124D9B
:102F000003A92846FDF7B8FD4FF40073039300238F
:102F10000493059303A92846FDF7AEFD636B43F0C8
:102F200080036363636B03F080030193019B636C15
:102F300043F480436364636C03F480430293029B15
:102F4000C8E700BF00380240000002407047FEE7BB
:102F5000FEE7FEE7FEE770477047704708B5FDF7EC
:102F600071FB08BD08B503460B4A126842B10A4A14
:102F7000106803446A46934206D8074A136008BDA6
:102F80000649054A1160F2E700F05CF80C23036083
:102F90004FF0FF3008BD00BF9C010020C806002094
:102FA00010B40F4AD2F8883043F47003C2F8883066
:102FB0000C4B196841F001011960002098601C68F1
:102FC00009492140196009495960196821F4802193
:102FD0001960D8604FF0006393605DF8044B704750
:102FE00000ED00E000380240FFFFF6FE1030002444
:102FF000DFF834D0002103E00C4B5B584350043120
:103000000B480C4B42189A42F6D30B4A02E00023BD
:1030100042F8043B094B9A42F9D3FFF7C1FF00F095
:1030200017F8FFF769FE70470000042064390008B4
:10303000000000207001002070010020C806002060
:10304000FEE70000014B1868704700BF0C0100202C
:1030500070B50D4E0D4CA41BA4100025A54209D13E
:103060000B4E0C4C00F03EFCA41BA4100025A54206
:1030700005D170BD56F8253098470135EEE756F872
:10308000253098470135F2E75C3900085C390008C3
:103090005C3900086039000802440346934200D1BD
:1030A000704703F8011BF9E70EB400B59CB04FF46C
:1030B00002711DABADF81410029006906FF0004144
:1030C0000A48049107914FF6FF7153F8042BADF8AD
:1030D00016100068019302A900F066F8029B002216
:1030E0001A701CB05DF804EB03B070470C010020AF
:1030F0002DE9F0478E689E4282460C4691469846DE
:1031000035D88A8912F4906F31D0256809696F1A11
:103110006569022305EB450595FBF3F508F101030D
:103120003B449D4238BF1D46530531D5294600F02A
:1031300039FB064650B90C23CAF80030A38943F086
:103140004003A3814FF0FF30BDE8F0873A46216984
:1031500000F0B4FAA38923F4906343F08003A381C1
:10316000266165613E44ED1B2660A56046464645E6
:1031700028BF464632464946206800F0AAFAA368AE
:103180009B1BA36023681E4426600020BDE8F087D7
:103190002A4600F065FB06460028E1D12169504629
:1031A00000F0B2FAC7E700002DE9F04F9DB080466D
:1031B00003938B891C060D4616460FD50B696BB918
:1031C000402100F0EFFA2860286128B90C23C8F8E4
:1031D00000304FF0FF30C5E040236B6100230993BE
:1031E00020238DF8293030238DF82A304FF0010B41
:1031F00037463C4614F8013B002B3CD1B7EB060A9E
:103200000BD05346324629464046FFF771FF013046
:1032100000F0A380099B534409933B78002B00F0F6
:103220009C8000234FF0FF3204930793059206938E
:103230008DF853301A93052221785048FCF7F8FF97
:10324000671C049BD8B9D90644BF20228DF85320AF
:103250001A0744BF2B228DF8532022782A2A16D031
:10326000079A00210A20274601343B78303B092B7E
:1032700051D9C9B111E0252BC0D02746B9E73F4A43
:10328000801A0BFA00F0184304903C46D3E7039AE7
:10329000111D12680391002A01DB079204E05242DB
:1032A00043F00203079204933B782E2B0ED17B78D8
:1032B0002A2B07F1010132D1039B1A1D1B680392CF
:1032C000002BB8BF4FF0FF33023705932C4C3978F1
:1032D00003222046FCF7ACFF38B14023001B03FA61
:1032E00000F0049B034304930137397825488DF897
:1032F000281006227E1CFCF79BFF002835D0224BAD
:10330000FBB9039B073323F0070308330393099B9F
:103310004B4409936CE700FB02320121A3E7002331
:10332000059318460A240F4601313A78303A092AA3
:1033300003D9002BCAD00590C8E704FB0020012365
:10334000F1E703AB00932A46104B04A94046AFF3C4
:103350000080B0F1FF3F8146D9D1AB895B063FF5D4
:1033600038AF09981DB0BDE8F08F03AB00932A4633
:10337000064B04A9404600F081F8EAE7203900082E
:10338000263900082A39000800000000F130000842
:103390002DE9F04791461F468A680B69DDF82080C9
:1033A0009342B8BF1346C9F8003091F8432006464F
:1033B0000C4612B10133C9F800302368990642BFA8
:1033C000D9F800300233C9F80030256815F0060539
:1033D00007D104F1190AE368D9F800209B1A9D422D
:1033E00029DB94F843302268003318BF012392068A
:1033F0002ED404F1430239463046C047013021D073
:103400002368E568D9F8002003F00603042B08BF01
:10341000AD1AA36822690CBF25EAE5750025934221
:10342000C4BF9B1AED184FF000091A344D451BD14B
:103430000020BDE8F0870123524639463046C04798
:10344000013003D14FF0FF30BDE8F0870135C2E70E
:10345000E1185A1C302081F84300224494F84510AA
:1034600082F843100233C4E701232246394630462E
:10347000C0470130E6D009F10109D7E72DE9F04353
:1034800017460A7E85B06E2A984606460C460C9B67
:1034900001F1430E00F0BC801AD8632A2ED00AD85E
:1034A000002A00F0C880582A00F08A8004F1420502
:1034B00084F842202AE0642A01D0692AF6D12168E2
:1034C0001A6811F0800F23D0111D1960136827E0CE
:1034D000732A00F0B48008D86F2A2AD0702AE5D168
:1034E0000A6842F020020A6003E0752A21D0782A97
:1034F000DCD1782284F845206E4964E01A6801F135
:103500004205111D1960136884F842300123A3E0BD
:1035100011F0400F02F104011960D7D0B2F9003068
:10352000002B03DA2D225B4284F8432062490A22F1
:1035300017E02068196810F0800F03D0081D18608C
:103540000B6806E010F0400F01F104001860F7D09E
:103550000B8859496F2A14BF0A220822002084F8D8
:1035600043006568A560002DC0F29C80206820F0B3
:1035700004002060002B3FD1002D40F0958075465F
:10358000082A0BD12368DA0708D5236962689A42B2
:10359000DEBF302305F8013C05F1FF35AEEB050336
:1035A0002361CDF800803B4603AA21463046FFF751
:1035B000EFFE013055D14FF0FF3005B0BDE8F0838C
:1035C00081F845203C492268186812F0800F00F10C
:1035D00004051D6001D0036802E05506FBD5038891
:1035E000D00744BF42F0200222601BB9226822F0BB
:1035F000200222601022B1E77546B3FBF2F002FB15
:103600001033CB5C05F8013D03460028F5D1B7E740
:1036100008681A68496910F0800F04D0101D1860FE
:103620001368196007E010F0400F02F10400186001
:103630001368F6D01980002323617546B1E71A6834
:10364000111D19601568626800212846FCF7F0FD1D
:1036500008B1401B606063682361002384F8433035
:103660009FE723692A4639463046C0470130A2D039
:1036700023689B0707D5002504F11909E368039A1D
:103680009B1A9D4205DBE068039B9842B8BF184631
:1036900093E701234A4639463046C04701308AD075
:1036A0000135EBE7002BA7D10B7884F8423004F109
:1036B000420565E7423900083139000810B5431E5C
:1036C0000A44914200D110BD11F8014B03F8014F9B
:1036D000F7E7884210B501EB020303D8421E994276
:1036E0000CD110BD9842F9D28118D21AD34200D120
:1036F00010BD13F8014D01F8014DF7E711F8014B2A
:1037000002F8014FEBE7000038B50546002945D027
:1037100051F8043C0C1F002BB8BFE41800F0D6F899
:103720001F4A1368104633B9636014602846BDE829
:10373000384000F0CCB8A3420CD9216862189342FB
:1037400004BF1A685B68636004BF5218226004609B
:10375000ECE713465A680AB1A242FAD91968581818
:10376000A0420BD120680144581882421960DDD173
:10377000106852685A6001441960D7E702D90C23D7
:103780002B60D3E7206821188A4204BF1168526871
:10379000626004BF091821605C60C7E738BD00BFE4
:1037A000A001002070B5CD1C25F0030508350C2DB7
:1037B00038BF0C25002D064601DBA94203D90C2396
:1037C0003360002070BD00F081F8234A1468214660
:1037D00091B9224C23681BB9304600F067F820608D
:1037E0002946304600F062F8431C26D10C23336092
:1037F000304600F06CF8E4E70B685B1B1AD40B2B27
:103800000FD90B60CD50CC18304600F060F804F1B1
:103810000B00231D20F00700C31A1BD05A42E250B0
:1038200070BD8C420DBF63684B686360136018BF46
:103830000C46E9E70C464968CAE7C41C24F00304B7
:10384000A04205D0211A304600F030F80130CDD02A
:103850002560D9E770BD00BFA0010020A4010020B1
:10386000F8B5074614460E4621B91146BDE8F840A2
:10387000FFF798BF22B9FFF747FF25462846F8BD56
:1038800000F026F884420FD921463846FFF78AFF18
:1038900005460028F2D031462246FFF70FFF314699
:1038A0003846FFF731FFE9E73546E7E738B5064C1C
:1038B0000023054608462360FFF754FB431C02D152
:1038C000236803B12B6038BDC406002070477047E1
:1038D00051F8040C0028A0F10400BCBF0B58C0181C
:1038E00070470000F8B500BFF8BC08BC9E467047A2
:0C38F000F8B500BFF8BC08BC9E4670474D
:1038FC004132442025640A0D000000000000000045
:10390C000000000001020304060708090000000083
:10391C0001020304232D302B2000686C4C006566DB
:10392C006745464700303132333435363738394104
:10393C00424344454600303132333435363738391A
:08394C0061626364656600001E
:08395400ACC9FF7F0100000077
:04395C000502000858
:04396000E101000879
:103964000100000010000000546573740A00000098
:103974000000000000000000000000000000000043
:103984000000000000000000000000000000000033
:103994000000000000000000000000000000000023
:1039A4000000000000000000000000000000000013
:1039B4000000000000000000000000000000000003
:1039C40000000000000000000000000000000000F3
:1039D40000000000000000000000000000000000E3
:1039E40000000000000000000000000000000000D3
:1039F40000000000000000000000000000000000C3
:103A040000000000000000000000000000000000B2
:103A140000000000000000000000000000000000A2
:103A24000000000000000000000000000000000092
:103A34000000000000000000000000000000000082
:103A44000000000000000000000000000000000072
:103A54000000000000000000000000000000000062
:103A640000000000000000000024F4001001002009
:103A74000000000000000000000000000000000042
:103A84000000000000000000000000000000000032
:103A94000000000000000000000000000000000022
:103AA4000000000000000000000000000000000012
:103AB4000000000000000000000000000000000002
:103AC40000000000000000000000000000000000F2
:0400000508002FF1CF
:00000001FF
